:020000020000FC
:10000000259A2D985598579A5F9807EC00937A0097
:1000100000E600937C000F931F9307E610E0009327
:10002000C4001093C50008E10093C10006E00093EE
:10003000C2001F910F912F938F939F9324E68EE31D
:100040009CE90197F1F72A95D1F700009F918F91D4
:100050002F910E942101FF920F931F932F933F93A3
:10006000CF93DF93EF93012F302F0F930091C000B8
:1000700005FFFCCF0F91C0E0D0E0E0E01AE02F9345
:10008000FF1829E0001F2A9509F408C0FF1CF11A87
:1000900018F4F10E8894F6CF0894F4CF2F91CF2D59
:1000A0001AE02F93FF1829E0001F2A9509F408C0D1
:1000B000FF1CF11A18F4F10E8894F6CF0894F4CFCF
:1000C0002F91DF2D1AE02F93FF1829E0001F2A95AA
:1000D00009F408C0FF1CF11A18F4F10E8894F6CF49
:1000E0000894F4CF2F91EF2D20E010E3203029F079
:1000F000213041F0223059F01DC03436C8F0E10FF4
:100100000E2F08C03A30A0F0D10F0D2F03C0C10F41
:100110000C2F00C00F930091C00005FFFCCF0F9182
:100120000093C6000F930091C00005FFFCCF0F9114
:100130002395DCCFEF91DF91CF913F912F911F91CC
:100140000F91FF901A3818F030E02D9804C02D9AC6
:1001500031E01E3600F44D9902C020E002C02D9A15
:1001600021E00F930091C00005FFFCCF0DE200934A
:10017000C6000F91213061F03130A9F00F9300914A
:10018000C00005FFFCCF00E30093C6000F9133C011
:100190000F930091C00005FFFCCF01E30093C60060
:1001A0000F915F9A29C00F930091C00005FFFCCF0B
:1001B00001E30093C6000F915F9A2F938F939F9353
:1001C00021E08EE39CE90197F1F72A95D1F7000031
:1001D0009F918F912F915F982F938F939F9321E001
:1001E0008EE39CE90197F1F72A95D1F700009F91E2
:1001F0008F912F9101C05F980F930091C00005FF70
:10020000FCCF0DE00093C6000091C00005FFFCCFBD
:100210000AE00093C6000F9100E00091C00007FFC4
:1002200003C00091C60001C000E0003049F0023474
:1002300021F05F9A31E021E003C05F9830E020E0D8
:10024000FACE00917A00006400937A0000917A005F
:0E02500006FDFCCF0091780010917900089512
:00000001FF
